{
  "contractName": "LandRegistry",
  "abi": [
    {
      "inputs": [],
      "stateMutability": "nonpayable",
      "type": "constructor"
    },
    {
      "anonymous": false,
      "inputs": [
        {
          "indexed": false,
          "internalType": "uint256",
          "name": "id",
          "type": "uint256"
        }
      ],
      "name": "LandDeregistered",
      "type": "event"
    },
    {
      "anonymous": false,
      "inputs": [
        {
          "indexed": false,
          "internalType": "uint256",
          "name": "id",
          "type": "uint256"
        },
        {
          "indexed": false,
          "internalType": "uint256",
          "name": "oldPrice",
          "type": "uint256"
        },
        {
          "indexed": false,
          "internalType": "uint256",
          "name": "newPrice",
          "type": "uint256"
        }
      ],
      "name": "LandPriceUpdated",
      "type": "event"
    },
    {
      "anonymous": false,
      "inputs": [
        {
          "indexed": false,
          "internalType": "uint256",
          "name": "id",
          "type": "uint256"
        },
        {
          "indexed": false,
          "internalType": "string",
          "name": "location",
          "type": "string"
        },
        {
          "indexed": false,
          "internalType": "uint256",
          "name": "acreage",
          "type": "uint256"
        },
        {
          "indexed": false,
          "internalType": "uint256",
          "name": "price",
          "type": "uint256"
        },
        {
          "indexed": true,
          "internalType": "address",
          "name": "owner",
          "type": "address"
        }
      ],
      "name": "LandRegistered",
      "type": "event"
    },
    {
      "anonymous": false,
      "inputs": [
        {
          "indexed": false,
          "internalType": "uint256",
          "name": "id",
          "type": "uint256"
        },
        {
          "indexed": true,
          "internalType": "address",
          "name": "oldOwner",
          "type": "address"
        },
        {
          "indexed": true,
          "internalType": "address",
          "name": "newOwner",
          "type": "address"
        },
        {
          "indexed": false,
          "internalType": "string",
          "name": "sellerName",
          "type": "string"
        },
        {
          "indexed": false,
          "internalType": "string",
          "name": "buyerName",
          "type": "string"
        }
      ],
      "name": "OwnershipTransferred",
      "type": "event"
    },
    {
      "inputs": [],
      "name": "landCount",
      "outputs": [
        {
          "internalType": "uint256",
          "name": "",
          "type": "uint256"
        }
      ],
      "stateMutability": "view",
      "type": "function"
    },
    {
      "inputs": [
        {
          "internalType": "uint256",
          "name": "",
          "type": "uint256"
        }
      ],
      "name": "lands",
      "outputs": [
        {
          "internalType": "uint256",
          "name": "id",
          "type": "uint256"
        },
        {
          "internalType": "string",
          "name": "location",
          "type": "string"
        },
        {
          "internalType": "uint256",
          "name": "acreage",
          "type": "uint256"
        },
        {
          "internalType": "uint256",
          "name": "price",
          "type": "uint256"
        },
        {
          "internalType": "address",
          "name": "owner",
          "type": "address"
        },
        {
          "internalType": "bool",
          "name": "isRegistered",
          "type": "bool"
        }
      ],
      "stateMutability": "view",
      "type": "function"
    },
    {
      "inputs": [
        {
          "internalType": "address",
          "name": "",
          "type": "address"
        },
        {
          "internalType": "uint256",
          "name": "",
          "type": "uint256"
        }
      ],
      "name": "ownerLands",
      "outputs": [
        {
          "internalType": "uint256",
          "name": "",
          "type": "uint256"
        }
      ],
      "stateMutability": "view",
      "type": "function"
    },
    {
      "inputs": [
        {
          "internalType": "string",
          "name": "_location",
          "type": "string"
        },
        {
          "internalType": "uint256",
          "name": "_acreage",
          "type": "uint256"
        },
        {
          "internalType": "uint256",
          "name": "_price",
          "type": "uint256"
        }
      ],
      "name": "registerLand",
      "outputs": [],
      "stateMutability": "nonpayable",
      "type": "function"
    },
    {
      "inputs": [
        {
          "internalType": "uint256",
          "name": "_landId",
          "type": "uint256"
        },
        {
          "internalType": "address",
          "name": "_newOwner",
          "type": "address"
        },
        {
          "internalType": "string",
          "name": "_sellerName",
          "type": "string"
        },
        {
          "internalType": "string",
          "name": "_buyerName",
          "type": "string"
        }
      ],
      "name": "transferOwnership",
      "outputs": [],
      "stateMutability": "payable",
      "type": "function"
    },
    {
      "inputs": [
        {
          "internalType": "uint256",
          "name": "_landId",
          "type": "uint256"
        }
      ],
      "name": "getLand",
      "outputs": [
        {
          "internalType": "string",
          "name": "",
          "type": "string"
        },
        {
          "internalType": "uint256",
          "name": "",
          "type": "uint256"
        },
        {
          "internalType": "uint256",
          "name": "",
          "type": "uint256"
        },
        {
          "internalType": "address",
          "name": "",
          "type": "address"
        }
      ],
      "stateMutability": "view",
      "type": "function"
    },
    {
      "inputs": [
        {
          "internalType": "uint256",
          "name": "_landId",
          "type": "uint256"
        },
        {
          "internalType": "uint256",
          "name": "_newPrice",
          "type": "uint256"
        }
      ],
      "name": "updateLandPrice",
      "outputs": [],
      "stateMutability": "nonpayable",
      "type": "function"
    },
    {
      "inputs": [
        {
          "internalType": "uint256",
          "name": "_landId",
          "type": "uint256"
        }
      ],
      "name": "deregisterLand",
      "outputs": [],
      "stateMutability": "nonpayable",
      "type": "function"
    }
  ],
  "bytecode": "0x60806040525f60025534801562000014575f80fd5b505f600190505b600281116200026a576040518060c0016040528082815260200162000046836200027960201b60201c565b604051602001620000589190620004aa565b6040516020818303038152906040528152602001600a836200007b919062000505565b81526020016103e88362000090919062000505565b81526020013373ffffffffffffffffffffffffffffffffffffffff168152602001600115158152505f808381526020019081526020015f205f820151815f01556020820151816001019081620000e79190620007a0565b5060408201518160020155606082015181600301556080820151816004015f6101000a81548173ffffffffffffffffffffffffffffffffffffffff021916908373ffffffffffffffffffffffffffffffffffffffff16021790555060a08201518160040160146101000a81548160ff02191690831515021790555090505060015f3373ffffffffffffffffffffffffffffffffffffffff1673ffffffffffffffffffffffffffffffffffffffff1681526020019081526020015f2081908060018154018082558091505060019003905f5260205f20015f90919091909150553373ffffffffffffffffffffffffffffffffffffffff167f9325cfeb8f7a9e8e6511896fe0077e215aa3a86b79d0ab0a0be900aad526161d825f808581526020019081526020015f206001015f808681526020019081526020015f20600201545f808781526020019081526020015f20600301546040516200024c949392919062000932565b60405180910390a28080620002619062000984565b9150506200001b565b50603260028190555062000afe565b60605f8203620002c1576040518060400160405280600181526020017f30000000000000000000000000000000000000000000000000000000000000008152509050620003e3565b5f8290505f5b5f8214620002f6578080620002dc9062000984565b915050600a82620002ee9190620009fd565b9150620002c7565b5f8167ffffffffffffffff8111156200031457620003136200054f565b5b6040519080825280601f01601f191660200182016040528015620003475781602001600182028036833780820191505090505b5090505b5f8514620003dc57600a8562000362919062000a34565b603062000370919062000a6b565b60f81b8183620003809062000aa5565b9350838151811062000397576200039662000ad1565b5b60200101907effffffffffffffffffffffffffffffffffffffffffffffffffffffffffffff191690815f1a905350600a85620003d49190620009fd565b94506200034b565b8093505050505b919050565b5f81905092915050565b7f4c6f636174696f6e2000000000000000000000000000000000000000000000005f82015250565b5f62000428600983620003e8565b91506200043582620003f2565b600982019050919050565b5f81519050919050565b5f5b83811015620004695780820151818401526020810190506200044c565b5f8484015250505050565b5f620004808262000440565b6200048c8185620003e8565b93506200049e8185602086016200044a565b80840191505092915050565b5f620004b6826200041a565b9150620004c4828462000474565b915081905092915050565b5f819050919050565b7f4e487b71000000000000000000000000000000000000000000000000000000005f52601160045260245ffd5b5f6200051182620004cf565b91506200051e83620004cf565b92508282026200052e81620004cf565b91508282048414831517620005485762000547620004d8565b5b5092915050565b7f4e487b71000000000000000000000000000000000000000000000000000000005f52604160045260245ffd5b7f4e487b71000000000000000000000000000000000000000000000000000000005f52602260045260245ffd5b5f6002820490506001821680620005c157607f821691505b602082108103620005d757620005d66200057c565b5b50919050565b5f819050815f5260205f209050919050565b5f6020601f8301049050919050565b5f82821b905092915050565b5f600883026200063b7fffffffffffffffffffffffffffffffffffffffffffffffffffffffffffffffff82620005fe565b620006478683620005fe565b95508019841693508086168417925050509392505050565b5f819050919050565b5f62000688620006826200067c84620004cf565b6200065f565b620004cf565b9050919050565b5f819050919050565b620006a38362000668565b620006bb620006b2826200068f565b8484546200060a565b825550505050565b5f90565b620006d1620006c3565b620006de81848462000698565b505050565b5b818110156200070557620006f95f82620006c7565b600181019050620006e4565b5050565b601f82111562000754576200071e81620005dd565b6200072984620005ef565b8101602085101562000739578190505b620007516200074885620005ef565b830182620006e3565b50505b505050565b5f82821c905092915050565b5f620007765f198460080262000759565b1980831691505092915050565b5f62000790838362000765565b9150826002028217905092915050565b620007ab8262000440565b67ffffffffffffffff811115620007c757620007c66200054f565b5b620007d38254620005a9565b620007e082828562000709565b5f60209050601f83116001811462000816575f841562000801578287015190505b6200080d858262000783565b8655506200087c565b601f1984166200082686620005dd565b5f5b828110156200084f5784890151825560018201915060208501945060208101905062000828565b868310156200086f57848901516200086b601f89168262000765565b8355505b6001600288020188555050505b505050505050565b6200088f81620004cf565b82525050565b5f82825260208201905092915050565b5f8154620008b381620005a9565b620008bf818662000895565b9450600182165f8114620008dc5760018114620008f35762000929565b60ff19831686528115156020028601935062000929565b620008fe85620005dd565b5f5b83811015620009215781548189015260018201915060208101905062000900565b808801955050505b50505092915050565b5f608082019050620009475f83018762000884565b81810360208301526200095b8186620008a5565b90506200096c604083018562000884565b6200097b606083018462000884565b95945050505050565b5f6200099082620004cf565b91507fffffffffffffffffffffffffffffffffffffffffffffffffffffffffffffffff8203620009c557620009c4620004d8565b5b600182019050919050565b7f4e487b71000000000000000000000000000000000000000000000000000000005f52601260045260245ffd5b5f62000a0982620004cf565b915062000a1683620004cf565b92508262000a295762000a28620009d0565b5b828204905092915050565b5f62000a4082620004cf565b915062000a4d83620004cf565b92508262000a605762000a5f620009d0565b5b828206905092915050565b5f62000a7782620004cf565b915062000a8483620004cf565b925082820190508082111562000a9f5762000a9e620004d8565b5b92915050565b5f62000ab182620004cf565b91505f820362000ac65762000ac5620004d8565b5b600182039050919050565b7f4e487b71000000000000000000000000000000000000000000000000000000005f52603260045260245ffd5b6118308062000b0c5f395ff3fe60806040526004361061007a575f3560e01c8063d7bce6581161004d578063d7bce65814610126578063daf1dfa114610150578063e261f1e514610178578063f02dd53f146101b95761007a565b80634c33fbb71461007e5780634e8b9a31146100a6578063562d2543146100c2578063d0dea6e2146100ea575b5f80fd5b348015610089575f80fd5b506100a4600480360381019061009f9190610ca5565b6101f8565b005b6100c060048036038101906100bb9190610e79565b610367565b005b3480156100cd575f80fd5b506100e860048036038101906100e39190610f15565b610654565b005b3480156100f5575f80fd5b50610110600480360381019061010b9190610f81565b61081e565b60405161011d9190610fce565b60405180910390f35b348015610131575f80fd5b5061013a610849565b6040516101479190610fce565b60405180910390f35b34801561015b575f80fd5b5061017660048036038101906101719190610fe7565b61084f565b005b348015610183575f80fd5b5061019e60048036038101906101999190610fe7565b6109b4565b6040516101b0969594939291906110b5565b60405180910390f35b3480156101c4575f80fd5b506101df60048036038101906101da9190610fe7565b610a9d565b6040516101ef949392919061111b565b60405180910390f35b5f808381526020019081526020015f2060040160149054906101000a900460ff16610258576040517f08c379a000000000000000000000000000000000000000000000000000000000815260040161024f906111af565b60405180910390fd5b3373ffffffffffffffffffffffffffffffffffffffff165f808481526020019081526020015f206004015f9054906101000a900473ffffffffffffffffffffffffffffffffffffffff1673ffffffffffffffffffffffffffffffffffffffff16146102f8576040517f08c379a00000000000000000000000000000000000000000000000000000000081526004016102ef90611217565b60405180910390fd5b5f805f8481526020019081526020015f20600301549050815f808581526020019081526020015f20600301819055507f65728be6f1c24fd049263c0bba735c721ce64fa3b4c5ef3be578ddaee50e545283828460405161035a93929190611235565b60405180910390a1505050565b5f808581526020019081526020015f2060040160149054906101000a900460ff166103c7576040517f08c379a00000000000000000000000000000000000000000000000000000000081526004016103be906111af565b60405180910390fd5b3373ffffffffffffffffffffffffffffffffffffffff165f808681526020019081526020015f206004015f9054906101000a900473ffffffffffffffffffffffffffffffffffffffff1673ffffffffffffffffffffffffffffffffffffffff1614610467576040517f08c379a000000000000000000000000000000000000000000000000000000000815260040161045e906112b4565b60405180910390fd5b8273ffffffffffffffffffffffffffffffffffffffff165f808681526020019081526020015f206004015f9054906101000a900473ffffffffffffffffffffffffffffffffffffffff1673ffffffffffffffffffffffffffffffffffffffff1603610507576040517f08c379a00000000000000000000000000000000000000000000000000000000081526004016104fe90611342565b60405180910390fd5b5f808581526020019081526020015f206003015434101561055d576040517f08c379a0000000000000000000000000000000000000000000000000000000008152600401610554906113aa565b60405180910390fd5b5f805f8681526020019081526020015f206004015f9054906101000a900473ffffffffffffffffffffffffffffffffffffffff169050835f808781526020019081526020015f206004015f6101000a81548173ffffffffffffffffffffffffffffffffffffffff021916908373ffffffffffffffffffffffffffffffffffffffff1602179055508373ffffffffffffffffffffffffffffffffffffffff168173ffffffffffffffffffffffffffffffffffffffff167fe2fbf564c9ad702dc6fa3ba90c9143125fde0076a68d9dfd3dd5b285d35e1e50878686604051610645939291906113c8565b60405180910390a35050505050565b60025f81548092919061066690611438565b91905055506040518060c0016040528060025481526020018481526020018381526020018281526020013373ffffffffffffffffffffffffffffffffffffffff168152602001600115158152505f8060025481526020019081526020015f205f820151815f015560208201518160010190816106e29190611679565b5060408201518160020155606082015181600301556080820151816004015f6101000a81548173ffffffffffffffffffffffffffffffffffffffff021916908373ffffffffffffffffffffffffffffffffffffffff16021790555060a08201518160040160146101000a81548160ff02191690831515021790555090505060015f3373ffffffffffffffffffffffffffffffffffffffff1673ffffffffffffffffffffffffffffffffffffffff1681526020019081526020015f20600254908060018154018082558091505060019003905f5260205f20015f90919091909150553373ffffffffffffffffffffffffffffffffffffffff167f9325cfeb8f7a9e8e6511896fe0077e215aa3a86b79d0ab0a0be900aad526161d6002548585856040516108119493929190611748565b60405180910390a2505050565b6001602052815f5260405f208181548110610837575f80fd5b905f5260205f20015f91509150505481565b60025481565b5f808281526020019081526020015f2060040160149054906101000a900460ff166108af576040517f08c379a00000000000000000000000000000000000000000000000000000000081526004016108a6906111af565b60405180910390fd5b3373ffffffffffffffffffffffffffffffffffffffff165f808381526020019081526020015f206004015f9054906101000a900473ffffffffffffffffffffffffffffffffffffffff1673ffffffffffffffffffffffffffffffffffffffff161461094f576040517f08c379a0000000000000000000000000000000000000000000000000000000008152600401610946906117dc565b60405180910390fd5b5f805f8381526020019081526020015f2060040160146101000a81548160ff0219169083151502179055507fe98762a65a0bdac840c9cc2405207c6ef747cd9f222b84a478d3b2e499f902fd816040516109a99190610fce565b60405180910390a150565b5f602052805f5260405f205f91509050805f0154908060010180546109d8906114ac565b80601f0160208091040260200160405190810160405280929190818152602001828054610a04906114ac565b8015610a4f5780601f10610a2657610100808354040283529160200191610a4f565b820191905f5260205f20905b815481529060010190602001808311610a3257829003601f168201915b505050505090806002015490806003015490806004015f9054906101000a900473ffffffffffffffffffffffffffffffffffffffff16908060040160149054906101000a900460ff16905086565b60605f805f805f8681526020019081526020015f2060040160149054906101000a900460ff16610b02576040517f08c379a0000000000000000000000000000000000000000000000000000000008152600401610af9906111af565b60405180910390fd5b5f805f8781526020019081526020015f206040518060c00160405290815f8201548152602001600182018054610b37906114ac565b80601f0160208091040260200160405190810160405280929190818152602001828054610b63906114ac565b8015610bae5780601f10610b8557610100808354040283529160200191610bae565b820191905f5260205f20905b815481529060010190602001808311610b9157829003601f168201915b505050505081526020016002820154815260200160038201548152602001600482015f9054906101000a900473ffffffffffffffffffffffffffffffffffffffff1673ffffffffffffffffffffffffffffffffffffffff1673ffffffffffffffffffffffffffffffffffffffff1681526020016004820160149054906101000a900460ff161515151581525050905080602001518160400151826060015183608001519450945094509450509193509193565b5f604051905090565b5f80fd5b5f80fd5b5f819050919050565b610c8481610c72565b8114610c8e575f80fd5b50565b5f81359050610c9f81610c7b565b92915050565b5f8060408385031215610cbb57610cba610c6a565b5b5f610cc885828601610c91565b9250506020610cd985828601610c91565b9150509250929050565b5f73ffffffffffffffffffffffffffffffffffffffff82169050919050565b5f610d0c82610ce3565b9050919050565b610d1c81610d02565b8114610d26575f80fd5b50565b5f81359050610d3781610d13565b92915050565b5f80fd5b5f80fd5b5f601f19601f8301169050919050565b7f4e487b71000000000000000000000000000000000000000000000000000000005f52604160045260245ffd5b610d8b82610d45565b810181811067ffffffffffffffff82111715610daa57610da9610d55565b5b80604052505050565b5f610dbc610c61565b9050610dc88282610d82565b919050565b5f67ffffffffffffffff821115610de757610de6610d55565b5b610df082610d45565b9050602081019050919050565b828183375f83830152505050565b5f610e1d610e1884610dcd565b610db3565b905082815260208101848484011115610e3957610e38610d41565b5b610e44848285610dfd565b509392505050565b5f82601f830112610e6057610e5f610d3d565b5b8135610e70848260208601610e0b565b91505092915050565b5f805f8060808587031215610e9157610e90610c6a565b5b5f610e9e87828801610c91565b9450506020610eaf87828801610d29565b935050604085013567ffffffffffffffff811115610ed057610ecf610c6e565b5b610edc87828801610e4c565b925050606085013567ffffffffffffffff811115610efd57610efc610c6e565b5b610f0987828801610e4c565b91505092959194509250565b5f805f60608486031215610f2c57610f2b610c6a565b5b5f84013567ffffffffffffffff811115610f4957610f48610c6e565b5b610f5586828701610e4c565b9350506020610f6686828701610c91565b9250506040610f7786828701610c91565b9150509250925092565b5f8060408385031215610f9757610f96610c6a565b5b5f610fa485828601610d29565b9250506020610fb585828601610c91565b9150509250929050565b610fc881610c72565b82525050565b5f602082019050610fe15f830184610fbf565b92915050565b5f60208284031215610ffc57610ffb610c6a565b5b5f61100984828501610c91565b91505092915050565b5f81519050919050565b5f82825260208201905092915050565b5f5b8381101561104957808201518184015260208101905061102e565b5f8484015250505050565b5f61105e82611012565b611068818561101c565b935061107881856020860161102c565b61108181610d45565b840191505092915050565b61109581610d02565b82525050565b5f8115159050919050565b6110af8161109b565b82525050565b5f60c0820190506110c85f830189610fbf565b81810360208301526110da8188611054565b90506110e96040830187610fbf565b6110f66060830186610fbf565b611103608083018561108c565b61111060a08301846110a6565b979650505050505050565b5f6080820190508181035f8301526111338187611054565b90506111426020830186610fbf565b61114f6040830185610fbf565b61115c606083018461108c565b95945050505050565b7f4c616e64206e6f742072656769737465726564000000000000000000000000005f82015250565b5f61119960138361101c565b91506111a482611165565b602082019050919050565b5f6020820190508181035f8301526111c68161118d565b9050919050565b7f4f6e6c79206f776e65722063616e2075706461746520707269636500000000005f82015250565b5f611201601b8361101c565b915061120c826111cd565b602082019050919050565b5f6020820190508181035f83015261122e816111f5565b9050919050565b5f6060820190506112485f830186610fbf565b6112556020830185610fbf565b6112626040830184610fbf565b949350505050565b7f4f6e6c79206f776e65722063616e207472616e736665720000000000000000005f82015250565b5f61129e60178361101c565b91506112a98261126a565b602082019050919050565b5f6020820190508181035f8301526112cb81611292565b9050919050565b7f4e6577206f776e6572206d75737420626520646966666572656e742066726f6d5f8201527f2063757272656e74206f776e6572000000000000000000000000000000000000602082015250565b5f61132c602e8361101c565b9150611337826112d2565b604082019050919050565b5f6020820190508181035f83015261135981611320565b9050919050565b7f496e73756666696369656e74207061796d656e740000000000000000000000005f82015250565b5f61139460148361101c565b915061139f82611360565b602082019050919050565b5f6020820190508181035f8301526113c181611388565b9050919050565b5f6060820190506113db5f830186610fbf565b81810360208301526113ed8185611054565b905081810360408301526114018184611054565b9050949350505050565b7f4e487b71000000000000000000000000000000000000000000000000000000005f52601160045260245ffd5b5f61144282610c72565b91507fffffffffffffffffffffffffffffffffffffffffffffffffffffffffffffffff82036114745761147361140b565b5b600182019050919050565b7f4e487b71000000000000000000000000000000000000000000000000000000005f52602260045260245ffd5b5f60028204905060018216806114c357607f821691505b6020821081036114d6576114d561147f565b5b50919050565b5f819050815f5260205f209050919050565b5f6020601f8301049050919050565b5f82821b905092915050565b5f600883026115387fffffffffffffffffffffffffffffffffffffffffffffffffffffffffffffffff826114fd565b61154286836114fd565b95508019841693508086168417925050509392505050565b5f819050919050565b5f61157d61157861157384610c72565b61155a565b610c72565b9050919050565b5f819050919050565b61159683611563565b6115aa6115a282611584565b848454611509565b825550505050565b5f90565b6115be6115b2565b6115c981848461158d565b505050565b5b818110156115ec576115e15f826115b6565b6001810190506115cf565b5050565b601f82111561163157611602816114dc565b61160b846114ee565b8101602085101561161a578190505b61162e611626856114ee565b8301826115ce565b50505b505050565b5f82821c905092915050565b5f6116515f1984600802611636565b1980831691505092915050565b5f6116698383611642565b9150826002028217905092915050565b61168282611012565b67ffffffffffffffff81111561169b5761169a610d55565b5b6116a582546114ac565b6116b08282856115f0565b5f60209050601f8311600181146116e1575f84156116cf578287015190505b6116d9858261165e565b865550611740565b601f1984166116ef866114dc565b5f5b82811015611716578489015182556001820191506020850194506020810190506116f1565b86831015611733578489015161172f601f891682611642565b8355505b6001600288020188555050505b505050505050565b5f60808201905061175b5f830187610fbf565b818103602083015261176d8186611054565b905061177c6040830185610fbf565b6117896060830184610fbf565b95945050505050565b7f4f6e6c79206f776e65722063616e2064657265676973746572000000000000005f82015250565b5f6117c660198361101c565b91506117d182611792565b602082019050919050565b5f6020820190508181035f8301526117f3816117ba565b905091905056fea26469706673582212208380278506563f51591de34240d31b87afadc23d02eea710a60efaf6d073f55a64736f6c63430008150033",
  "immutableReferences": {},
  "source": "// SPDX-License-Identifier: MIT\r\npragma solidity ^0.8.0;\r\n\r\ncontract LandRegistry {\r\n    struct Land {\r\n        uint256 id;\r\n        string location;\r\n        uint256 acreage;\r\n        uint256 price;\r\n        address owner;\r\n        bool isRegistered;\r\n    }\r\n\r\n    mapping(uint256 => Land) public lands; // Store lands by ID\r\n    mapping(address => uint256[]) public ownerLands; // Track lands owned by each user\r\n    uint256 public landCount = 0;\r\n\r\n    event LandRegistered(uint256 id, string location, uint256 acreage, uint256 price, address indexed owner);\r\n    event OwnershipTransferred(uint256 id, address indexed oldOwner, address indexed newOwner, string sellerName, string buyerName);\r\n    event LandDeregistered(uint256 id);\r\n    event LandPriceUpdated(uint256 id, uint256 oldPrice, uint256 newPrice);\r\n\r\n    constructor() {\r\n        // Initialize with 50 default lands\r\n        for (uint256 i = 1; i <= 2; i++) {\r\n            lands[i] = Land(i, string(abi.encodePacked(\"Location \", uint2str(i))), i * 10, i * 1000, msg.sender, true);\r\n            ownerLands[msg.sender].push(i);\r\n            emit LandRegistered(i, lands[i].location, lands[i].acreage, lands[i].price, msg.sender);\r\n        }\r\n        landCount = 50;\r\n    }\r\n\r\n    // Register a new land property\r\n    function registerLand(string memory _location, uint256 _acreage, uint256 _price) public {\r\n        landCount++;\r\n        lands[landCount] = Land(landCount, _location, _acreage, _price, msg.sender, true);\r\n        ownerLands[msg.sender].push(landCount);\r\n        \r\n        emit LandRegistered(landCount, _location, _acreage, _price, msg.sender);\r\n    }\r\n\r\n    // Transfer land ownership\r\n    function transferOwnership(uint256 _landId, address _newOwner, string memory _sellerName, string memory _buyerName) public payable {\r\n        require(lands[_landId].isRegistered, \"Land not registered\");\r\n        require(lands[_landId].owner == msg.sender, \"Only owner can transfer\");\r\n        require(lands[_landId].owner != _newOwner, \"New owner must be different from current owner\");\r\n        require(msg.value >= lands[_landId].price, \"Insufficient payment\");\r\n\r\n        address previousOwner = lands[_landId].owner;\r\n        lands[_landId].owner = _newOwner;\r\n        \r\n        emit OwnershipTransferred(_landId, previousOwner, _newOwner, _sellerName, _buyerName);\r\n    }\r\n\r\n    // Get land details\r\n    function getLand(uint256 _landId) public view returns (string memory, uint256, uint256, address) {\r\n        require(lands[_landId].isRegistered, \"Land not registered\");\r\n        Land memory land = lands[_landId];\r\n        return (land.location, land.acreage, land.price, land.owner);\r\n    }\r\n\r\n    // Update land price\r\n    function updateLandPrice(uint256 _landId, uint256 _newPrice) public {\r\n        require(lands[_landId].isRegistered, \"Land not registered\");\r\n        require(lands[_landId].owner == msg.sender, \"Only owner can update price\");\r\n\r\n        uint256 oldPrice = lands[_landId].price;\r\n        lands[_landId].price = _newPrice;\r\n\r\n        emit LandPriceUpdated(_landId, oldPrice, _newPrice);\r\n    }\r\n\r\n    // Deregister a land\r\n    function deregisterLand(uint256 _landId) public {\r\n        require(lands[_landId].isRegistered, \"Land not registered\");\r\n        require(lands[_landId].owner == msg.sender, \"Only owner can deregister\");\r\n\r\n        lands[_landId].isRegistered = false;\r\n\r\n        emit LandDeregistered(_landId);\r\n    }\r\n\r\n    // Helper function to convert uint to string\r\n    function uint2str(uint256 _i) internal pure returns (string memory) {\r\n        if (_i == 0) {\r\n            return \"0\";\r\n        }\r\n        uint256 j = _i;\r\n        uint256 length;\r\n        while (j != 0) {\r\n            length++;\r\n            j /= 10;\r\n        }\r\n        bytes memory bstr = new bytes(length);\r\n        while (_i != 0) {\r\n            bstr[--length] = bytes1(uint8(48 + _i % 10));\r\n            _i /= 10;\r\n        }\r\n        return string(bstr);\r\n    }\r\n}\r\n",
  "sourcePath": "C:\\Users\\A1\\Documents\\land-registry\\contracts\\LandRegistry.sol",
  "compiler": {
    "name": "solc",
    "version": "0.8.21+commit.d9974bed.Emscripten.clang"
  },
  "schemaVersion": "3.4.16",
  "updatedAt": "2025-03-01T06:13:55.341Z",
  "devdoc": {
    "kind": "dev",
    "methods": {},
    "version": 1
  },
  "userdoc": {
    "kind": "user",
    "methods": {},
    "version": 1
  }
}